:1000000000400020E5040000250500002705000051
:1000100000000000000000000000000000000000E0
:1000200000000000000000000000000029050000A2
:1000300000000000000000002B0500002D0500005E
:100040002F0500002F0500002F0500002F050000E0
:100050002F050000000000002F0500002F05000004
:100060002F0500002F0500002F0500002F050000C0
:100070002F0500002F0500002F0500002F050000B0
:100080002F0500002F0500002F0500002F050000A0
:100090002F0500002F0500002F0500002F05000090
:1000A0002F0500002F0500000000000000000000E8
:1000B0000000000000000000000000000000000040
:1000C000054B0648033310B51B1A062B03D9044B06
:1000D000002B00D0984710BD4004002040040020B1
:1000E000000000000648074910B5091A8910CB0F17
:1000F0005918491003D0044B002B00D0984710BD6D
:1001000040040020400400200000000010B5074C0F
:100110002378002B09D1FFF7D3FF054B002B02D02A
:10012000044800E000BF0123237010BD40040020FC
:100130000000000078080000094B10B5002B03D028
:100140000849094800E000BF08480368002B02D1B5
:10015000FFF7C8FF10BD064B002BF9D09847F7E713
:100160000000000044040020780800003C04002047
:1001700000000000144B002B00D1124B9D46402282
:1001800092029A1A924600218B460F461148124A53
:10019000121A00F023FA0D4B002B00D098470C4B9D
:1001A000002B00D098470020002104000D000B48D0
:1001B00000F0BEF900F0EEF92000290000F010F880
:1001C00000F0BEF900000800004000200000000020
:1001D00000000000400400205C04002061050000D5
:1001E00080B584B000AF0423FB6023E0A023DA05D0
:1001F0000121FB6899400B001900A323DB00D150BB
:10020000FB680C2B0ADCA023DA050121FB6899406E
:100210000B001900A123DB00D15008E0A023DB056F
:100220000121FA6891400A001100414A9950FB6887
:100230000133FB60FB680F2BD8DDA023DB053D4AB3
:1002400000219950A023DA05ED23DB000021D150D5
:100250000023BB60A023DA05A223DB00D258802351
:100260009B02134028D104237B6022E07B680C2B87
:100270000DDCA023DB05A022D2052D495258012018
:100280007968884001000A4329495A500EE0A023AA
:10029000DA05A023D905A123DB00CB58012079681A
:1002A000884001001943A123DB00D1507B68013352
:1002B0007B607B680F2BD9DDA023DA05A223DB004E
:1002C000D2588023DB04134028D104233B6022E072
:1002D0003B68002B0FDCA023DA05A023D905A1235E
:1002E000DB00CB5801203968884001001943A12365
:1002F000DB00D1500CE0A023DB05A022D2050C4985
:10030000525801203968884001000A4308495A5070
:100310003B6801333B603B680F2BD9DD064BBB606C
:10032000BB68013BBB60BB68002BF9D192E7C046BC
:100330000C050000440700001027000080B500AF46
:1003400000F036F8031E06D0134B144A1A60144B03
:10035000802212021A6000F06BF8031E05D0802381
:10036000DA05C123DB000121D15000F087F8031E1C
:100370000ED00C4B1B68012B07D00A4B0A4A1A609F
:10038000C046084B1B68012BFBD1084BC0221A60EA
:10039000C046BD4680BDC04604050040DFFF07C023
:1003A000186C004000EC06407593000014EC064009
:1003B00080B500AF1A4B1B68FF221340012B2AD1D6
:1003C000184B1B680F22134025D1174B1B68F022D6
:1003D000134006D1154B1B68F022134001D10123B5
:1003E0001AE0114B1B68F0221340102B06D10F4B63
:1003F0001B68F022134001D101230DE00A4B1B685A
:10040000F0221340302B06D1084B1B68F02213401A
:1004100001D1012300E000231800BD4680BDC04685
:10042000E00F00F0E40F00F0E80F00F0EC0F00F038
:1004300080B500AF0D4B1B68FF221340012B11D17B
:100440000B4B1B680F2213400CD10A4B1B68F02288
:100450001340402B06D1084B1B68F022134001D1FA
:10046000012300E000231800BD4680BDE00F00F02E
:10047000E40F00F0E80F00F0EC0F00F080B500AFE3
:10048000144B1B68FF221340012B1ED1124B1B681B
:100490000F22134019D1114B1B68F0221340A02BDF
:1004A00006D10F4B1B68F022134001D101230DE050
:1004B0000A4B1B68F0221340D02B06D1084B1B6857
:1004C000F022134001D1012300E000231800BD46B3
:1004D00080BDC046E00F00F0E40F00F0E80F00F030
:1004E000EC0F00F003210A4802680A430260094841
:1004F00002680A4302600849084A094B9B1A03DD57
:10050000043BC858D050FBDCFFF718FFFFF732FE62
:10051000240500405405004084080000000000202D
:1005200040040020FEE7FEE7FEE7FEE7FEE7FEE709
:1005300010B5010000230022002000F099F810BD42
:1005400010B50021040000F0FDF8044B1868C36BDF
:10055000002B00D09847200000F07CF970080000C4
:1005600070B5094B094CE41AA41009D0084AA51823
:10057000AD00ED182B68013C9847043D002CF9D1E3
:1005800000F070F970BDC046380400203C04002023
:10059000FFFFFF3F70B50D4E0D4D0024AD1BAD109C
:1005A00005D0A300F35801349847A542F9D100F0D3
:1005B00053F9084E084D0024AD1BAD1005D0A30023
:1005C000F35801349847A542F9D170BD300400209A
:1005D000300400203004002038040020F0B58307E8
:1005E00043D0541E002A3FD0CEB20200032502E0C1
:1005F0001A00013C38D3531C16702B42F8D1032C3F
:100600002AD9FF220A40150215432A0415430F2C4C
:1006100014D927001A00103F3E09013636019E19F1
:10062000156055609560D56010329642F8D10F2262
:1006300097431037DB191440032C0DD91A00271FDC
:10064000BE080136B6009E1920C2B242FCD1032278
:1006500097430437DB191440002C05D0C9B21C198C
:10066000197001339C42FBD1F0BD14000300C6E7B2
:10067000F8B5DE469B46314B45461C68A4234E46E2
:1006800057465B00E0B50500E0580E009046002894
:100690004BD043681F2B0DDC5C1C002D21D1023395
:1006A0009B0044601E5000203CBC90469946A246E8
:1006B000AB46F8BD224B002B3CD0C820400000E0E8
:1006C00000BF002836D0A42200235200A158436066
:1006D0000160A05040328350043283500124002D29
:1006E000DDD09A0091468144424688214F467A5097
:1006F000C42252009046804442468739994012688D
:100700008A460A439446424661461160842249461D
:100710005F4652008F50022DC1D1020055468D32E6
:10072000FF3211680D431560B9E720004D30FF30EE
:10073000E050AEE701204042B6E7C0467008000036
:1007400000000000F0B55746DE464E464546E0B58F
:100750000F00384B85B01B68019002934933FF337B
:100760000393A422029B52009E58002E4ED0039B5E
:100770009946C4235B00984604339A467468B04493
:10078000A5007519B244013C08D52DE06B1DFF335F
:100790001B689F4204D0043D013C25D3002FF5D1B6
:1007A00073686A68013BA34239D000236B60002A5A
:1007B000F1D0736841469B460123A3400968194262
:1007C0002BD05146096819422BD12B00843319686C
:1007D0000198904773685B45C3D14B461B68B34291
:1007E000BFD1043D013CD9D2134B002B0ED073680E
:1007F000002B1BD13368002B08D04A463000136011
:1008000000E000BF4B461E68002EB2D105B03CBCD4
:1008100090469946A246AB46F0BD9047DAE7746031
:10082000C5E72B00843318689047D3E7B146366894
:10083000EAE7C0467008000000000000034B10B556
:10084000002B02D00248FFF773FE10BD000000002D
:1008500061050000FEE7C046F8B5C046F8BC08BC1C
:100860009E467047F8B5C046F8BC08BC9E46704727
:0C08700008000020430000000000000011
:08087C00F8F8FF7F0100000005
:10088400080000200000000000000000F402002026
:100894005C030020C40300200000000000000000EE
:1008A4000000000000000000000000000000000044
:1008B40000000000000000000000000074080000B8
:1008C4000000000000000000000000000000000024
:1008D4000000000000000000000000000000000014
:1008E4000000000000000000000000000000000004
:1008F40000000000000000000000000000000000F4
:1009040000000000000000000000000000000000E3
:1009140000000000000000000000000000000000D3
:1009240000000000000000000000000000000000C3
:1009340001000000000000000E33CDAB34126DE660
:10094400ECDE05000B0000000000000000000000C9
:100954000000000000000000000000000000000093
:100964000000000000000000000000000000000083
:100974000000000000000000000000000000000073
:100984000000000000000000000000000000000063
:100CB4003D080000390100000D01000000000000A3
:04000003000004E510
:00000001FF
